{
  "_format": "hh-sol-artifact-1",
  "contractName": "SupplyChain",
  "sourceName": "contracts/SupplyChain.sol",
  "abi": [
    {
      "inputs": [],
      "stateMutability": "nonpayable",
      "type": "constructor"
    },
    {
      "anonymous": false,
      "inputs": [
        {
          "components": [
            {
              "internalType": "uint256",
              "name": "boxId",
              "type": "uint256"
            },
            {
              "internalType": "uint256",
              "name": "productId",
              "type": "uint256"
            },
            {
              "internalType": "uint256",
              "name": "quantity",
              "type": "uint256"
            },
            {
              "internalType": "uint256",
              "name": "weight",
              "type": "uint256"
            },
            {
              "internalType": "uint256",
              "name": "value",
              "type": "uint256"
            },
            {
              "internalType": "enum SupplyChain.BoxStatus",
              "name": "status",
              "type": "uint8"
            },
            {
              "internalType": "bool",
              "name": "isCompliance",
              "type": "bool"
            },
            {
              "internalType": "string",
              "name": "productionDate",
              "type": "string"
            },
            {
              "internalType": "string",
              "name": "expirationDate",
              "type": "string"
            },
            {
              "internalType": "string",
              "name": "supplier",
              "type": "string"
            },
            {
              "internalType": "string",
              "name": "supermarket",
              "type": "string"
            },
            {
              "internalType": "string",
              "name": "location",
              "type": "string"
            },
            {
              "internalType": "uint256",
              "name": "lastUpdate",
              "type": "uint256"
            }
          ],
          "indexed": false,
          "internalType": "struct SupplyChain.Box",
          "name": "_box",
          "type": "tuple"
        },
        {
          "indexed": false,
          "internalType": "uint256",
          "name": "_timestamp",
          "type": "uint256"
        }
      ],
      "name": "BoxHasRecalled",
      "type": "event"
    },
    {
      "anonymous": false,
      "inputs": [
        {
          "components": [
            {
              "internalType": "uint256",
              "name": "boxId",
              "type": "uint256"
            },
            {
              "internalType": "uint256",
              "name": "productId",
              "type": "uint256"
            },
            {
              "internalType": "uint256",
              "name": "quantity",
              "type": "uint256"
            },
            {
              "internalType": "uint256",
              "name": "weight",
              "type": "uint256"
            },
            {
              "internalType": "uint256",
              "name": "value",
              "type": "uint256"
            },
            {
              "internalType": "enum SupplyChain.BoxStatus",
              "name": "status",
              "type": "uint8"
            },
            {
              "internalType": "bool",
              "name": "isCompliance",
              "type": "bool"
            },
            {
              "internalType": "string",
              "name": "productionDate",
              "type": "string"
            },
            {
              "internalType": "string",
              "name": "expirationDate",
              "type": "string"
            },
            {
              "internalType": "string",
              "name": "supplier",
              "type": "string"
            },
            {
              "internalType": "string",
              "name": "supermarket",
              "type": "string"
            },
            {
              "internalType": "string",
              "name": "location",
              "type": "string"
            },
            {
              "internalType": "uint256",
              "name": "lastUpdate",
              "type": "uint256"
            }
          ],
          "indexed": false,
          "internalType": "struct SupplyChain.Box",
          "name": "_box",
          "type": "tuple"
        },
        {
          "indexed": false,
          "internalType": "uint256",
          "name": "_temperature",
          "type": "uint256"
        },
        {
          "indexed": false,
          "internalType": "uint256",
          "name": "_humidity",
          "type": "uint256"
        },
        {
          "indexed": false,
          "internalType": "uint256",
          "name": "_timestamp",
          "type": "uint256"
        }
      ],
      "name": "BoxStoredIsNotCompliance",
      "type": "event"
    },
    {
      "anonymous": false,
      "inputs": [
        {
          "components": [
            {
              "internalType": "uint256",
              "name": "boxId",
              "type": "uint256"
            },
            {
              "internalType": "uint256",
              "name": "productId",
              "type": "uint256"
            },
            {
              "internalType": "uint256",
              "name": "quantity",
              "type": "uint256"
            },
            {
              "internalType": "uint256",
              "name": "weight",
              "type": "uint256"
            },
            {
              "internalType": "uint256",
              "name": "value",
              "type": "uint256"
            },
            {
              "internalType": "enum SupplyChain.BoxStatus",
              "name": "status",
              "type": "uint8"
            },
            {
              "internalType": "bool",
              "name": "isCompliance",
              "type": "bool"
            },
            {
              "internalType": "string",
              "name": "productionDate",
              "type": "string"
            },
            {
              "internalType": "string",
              "name": "expirationDate",
              "type": "string"
            },
            {
              "internalType": "string",
              "name": "supplier",
              "type": "string"
            },
            {
              "internalType": "string",
              "name": "supermarket",
              "type": "string"
            },
            {
              "internalType": "string",
              "name": "location",
              "type": "string"
            },
            {
              "internalType": "uint256",
              "name": "lastUpdate",
              "type": "uint256"
            }
          ],
          "indexed": false,
          "internalType": "struct SupplyChain.Box",
          "name": "_box",
          "type": "tuple"
        },
        {
          "indexed": false,
          "internalType": "string",
          "name": "_from",
          "type": "string"
        },
        {
          "indexed": false,
          "internalType": "string",
          "name": "_to",
          "type": "string"
        },
        {
          "indexed": false,
          "internalType": "uint256",
          "name": "_timestamp",
          "type": "uint256"
        }
      ],
      "name": "ChangeBoxLocation",
      "type": "event"
    },
    {
      "anonymous": false,
      "inputs": [
        {
          "components": [
            {
              "internalType": "uint256",
              "name": "boxId",
              "type": "uint256"
            },
            {
              "internalType": "uint256",
              "name": "productId",
              "type": "uint256"
            },
            {
              "internalType": "uint256",
              "name": "quantity",
              "type": "uint256"
            },
            {
              "internalType": "uint256",
              "name": "weight",
              "type": "uint256"
            },
            {
              "internalType": "uint256",
              "name": "value",
              "type": "uint256"
            },
            {
              "internalType": "enum SupplyChain.BoxStatus",
              "name": "status",
              "type": "uint8"
            },
            {
              "internalType": "bool",
              "name": "isCompliance",
              "type": "bool"
            },
            {
              "internalType": "string",
              "name": "productionDate",
              "type": "string"
            },
            {
              "internalType": "string",
              "name": "expirationDate",
              "type": "string"
            },
            {
              "internalType": "string",
              "name": "supplier",
              "type": "string"
            },
            {
              "internalType": "string",
              "name": "supermarket",
              "type": "string"
            },
            {
              "internalType": "string",
              "name": "location",
              "type": "string"
            },
            {
              "internalType": "uint256",
              "name": "lastUpdate",
              "type": "uint256"
            }
          ],
          "indexed": false,
          "internalType": "struct SupplyChain.Box",
          "name": "_box",
          "type": "tuple"
        },
        {
          "indexed": false,
          "internalType": "uint256",
          "name": "_timestamp",
          "type": "uint256"
        }
      ],
      "name": "CreateBox",
      "type": "event"
    },
    {
      "anonymous": false,
      "inputs": [
        {
          "components": [
            {
              "internalType": "uint256",
              "name": "deliveryId",
              "type": "uint256"
            },
            {
              "internalType": "uint256[]",
              "name": "boxesId",
              "type": "uint256[]"
            },
            {
              "internalType": "string",
              "name": "truckLicensePlate",
              "type": "string"
            },
            {
              "internalType": "string",
              "name": "sender",
              "type": "string"
            },
            {
              "internalType": "string",
              "name": "senderAddress",
              "type": "string"
            },
            {
              "internalType": "string",
              "name": "receiver",
              "type": "string"
            },
            {
              "internalType": "string",
              "name": "receiverAddress",
              "type": "string"
            },
            {
              "internalType": "string",
              "name": "estimatedDepartureDatetime",
              "type": "string"
            },
            {
              "internalType": "string",
              "name": "actualDepartureDatetime",
              "type": "string"
            },
            {
              "internalType": "string",
              "name": "estimatedArrivalDatetime",
              "type": "string"
            },
            {
              "internalType": "string",
              "name": "actualArrivalDatetime",
              "type": "string"
            },
            {
              "internalType": "uint256",
              "name": "lastUpdate",
              "type": "uint256"
            }
          ],
          "indexed": false,
          "internalType": "struct SupplyChain.Delivery",
          "name": "_delivery",
          "type": "tuple"
        },
        {
          "indexed": false,
          "internalType": "uint256",
          "name": "_timestamp",
          "type": "uint256"
        }
      ],
      "name": "CreateDelivery",
      "type": "event"
    },
    {
      "anonymous": false,
      "inputs": [
        {
          "components": [
            {
              "internalType": "uint256",
              "name": "productId",
              "type": "uint256"
            },
            {
              "internalType": "string",
              "name": "productNameZh",
              "type": "string"
            },
            {
              "internalType": "string",
              "name": "productNameEn",
              "type": "string"
            },
            {
              "internalType": "string",
              "name": "productType",
              "type": "string"
            },
            {
              "internalType": "string",
              "name": "manufacturerNameZh",
              "type": "string"
            },
            {
              "internalType": "string",
              "name": "manufacturerNameEn",
              "type": "string"
            },
            {
              "internalType": "uint256",
              "name": "recommendedTemperature",
              "type": "uint256"
            },
            {
              "internalType": "uint256",
              "name": "requiredTemperatureUpper",
              "type": "uint256"
            },
            {
              "internalType": "uint256",
              "name": "requiredTemperatureLower",
              "type": "uint256"
            },
            {
              "internalType": "uint256",
              "name": "recommendedHumidity",
              "type": "uint256"
            },
            {
              "internalType": "uint256",
              "name": "requiredHumidityUpper",
              "type": "uint256"
            },
            {
              "internalType": "uint256",
              "name": "requiredHumidityLower",
              "type": "uint256"
            },
            {
              "internalType": "uint256",
              "name": "lastUpdate",
              "type": "uint256"
            }
          ],
          "indexed": false,
          "internalType": "struct SupplyChain.Product",
          "name": "_product",
          "type": "tuple"
        },
        {
          "indexed": false,
          "internalType": "uint256",
          "name": "_timestamp",
          "type": "uint256"
        }
      ],
      "name": "CreateProduct",
      "type": "event"
    },
    {
      "anonymous": false,
      "inputs": [
        {
          "components": [
            {
              "internalType": "uint256",
              "name": "deliveryId",
              "type": "uint256"
            },
            {
              "internalType": "uint256[]",
              "name": "boxesId",
              "type": "uint256[]"
            },
            {
              "internalType": "string",
              "name": "truckLicensePlate",
              "type": "string"
            },
            {
              "internalType": "string",
              "name": "sender",
              "type": "string"
            },
            {
              "internalType": "string",
              "name": "senderAddress",
              "type": "string"
            },
            {
              "internalType": "string",
              "name": "receiver",
              "type": "string"
            },
            {
              "internalType": "string",
              "name": "receiverAddress",
              "type": "string"
            },
            {
              "internalType": "string",
              "name": "estimatedDepartureDatetime",
              "type": "string"
            },
            {
              "internalType": "string",
              "name": "actualDepartureDatetime",
              "type": "string"
            },
            {
              "internalType": "string",
              "name": "estimatedArrivalDatetime",
              "type": "string"
            },
            {
              "internalType": "string",
              "name": "actualArrivalDatetime",
              "type": "string"
            },
            {
              "internalType": "uint256",
              "name": "lastUpdate",
              "type": "uint256"
            }
          ],
          "indexed": false,
          "internalType": "struct SupplyChain.Delivery",
          "name": "_delivery",
          "type": "tuple"
        },
        {
          "indexed": false,
          "internalType": "uint256",
          "name": "_timestamp",
          "type": "uint256"
        }
      ],
      "name": "SendBox",
      "type": "event"
    },
    {
      "anonymous": false,
      "inputs": [
        {
          "components": [
            {
              "internalType": "uint256",
              "name": "deliveryId",
              "type": "uint256"
            },
            {
              "internalType": "uint256[]",
              "name": "boxesId",
              "type": "uint256[]"
            },
            {
              "internalType": "string",
              "name": "truckLicensePlate",
              "type": "string"
            },
            {
              "internalType": "string",
              "name": "sender",
              "type": "string"
            },
            {
              "internalType": "string",
              "name": "senderAddress",
              "type": "string"
            },
            {
              "internalType": "string",
              "name": "receiver",
              "type": "string"
            },
            {
              "internalType": "string",
              "name": "receiverAddress",
              "type": "string"
            },
            {
              "internalType": "string",
              "name": "estimatedDepartureDatetime",
              "type": "string"
            },
            {
              "internalType": "string",
              "name": "actualDepartureDatetime",
              "type": "string"
            },
            {
              "internalType": "string",
              "name": "estimatedArrivalDatetime",
              "type": "string"
            },
            {
              "internalType": "string",
              "name": "actualArrivalDatetime",
              "type": "string"
            },
            {
              "internalType": "uint256",
              "name": "lastUpdate",
              "type": "uint256"
            }
          ],
          "indexed": false,
          "internalType": "struct SupplyChain.Delivery",
          "name": "_delivery",
          "type": "tuple"
        },
        {
          "indexed": false,
          "internalType": "uint256",
          "name": "_timestamp",
          "type": "uint256"
        }
      ],
      "name": "SignForBox",
      "type": "event"
    },
    {
      "anonymous": false,
      "inputs": [
        {
          "components": [
            {
              "internalType": "uint256",
              "name": "boxId",
              "type": "uint256"
            },
            {
              "internalType": "uint256",
              "name": "productId",
              "type": "uint256"
            },
            {
              "internalType": "uint256",
              "name": "quantity",
              "type": "uint256"
            },
            {
              "internalType": "uint256",
              "name": "weight",
              "type": "uint256"
            },
            {
              "internalType": "uint256",
              "name": "value",
              "type": "uint256"
            },
            {
              "internalType": "enum SupplyChain.BoxStatus",
              "name": "status",
              "type": "uint8"
            },
            {
              "internalType": "bool",
              "name": "isCompliance",
              "type": "bool"
            },
            {
              "internalType": "string",
              "name": "productionDate",
              "type": "string"
            },
            {
              "internalType": "string",
              "name": "expirationDate",
              "type": "string"
            },
            {
              "internalType": "string",
              "name": "supplier",
              "type": "string"
            },
            {
              "internalType": "string",
              "name": "supermarket",
              "type": "string"
            },
            {
              "internalType": "string",
              "name": "location",
              "type": "string"
            },
            {
              "internalType": "uint256",
              "name": "lastUpdate",
              "type": "uint256"
            }
          ],
          "indexed": false,
          "internalType": "struct SupplyChain.Box",
          "name": "_box",
          "type": "tuple"
        },
        {
          "indexed": false,
          "internalType": "uint256",
          "name": "_temperature",
          "type": "uint256"
        },
        {
          "indexed": false,
          "internalType": "uint256",
          "name": "_humidity",
          "type": "uint256"
        },
        {
          "indexed": false,
          "internalType": "uint256",
          "name": "_timestamp",
          "type": "uint256"
        }
      ],
      "name": "TrackBox",
      "type": "event"
    },
    {
      "inputs": [
        {
          "internalType": "string",
          "name": "_a",
          "type": "string"
        },
        {
          "internalType": "string",
          "name": "_b",
          "type": "string"
        }
      ],
      "name": "compareStrings",
      "outputs": [
        {
          "internalType": "bool",
          "name": "",
          "type": "bool"
        }
      ],
      "stateMutability": "pure",
      "type": "function"
    },
    {
      "inputs": [
        {
          "components": [
            {
              "internalType": "uint256",
              "name": "boxId",
              "type": "uint256"
            },
            {
              "internalType": "uint256",
              "name": "productId",
              "type": "uint256"
            },
            {
              "internalType": "uint256",
              "name": "quantity",
              "type": "uint256"
            },
            {
              "internalType": "uint256",
              "name": "weight",
              "type": "uint256"
            },
            {
              "internalType": "uint256",
              "name": "value",
              "type": "uint256"
            },
            {
              "internalType": "enum SupplyChain.BoxStatus",
              "name": "status",
              "type": "uint8"
            },
            {
              "internalType": "bool",
              "name": "isCompliance",
              "type": "bool"
            },
            {
              "internalType": "string",
              "name": "productionDate",
              "type": "string"
            },
            {
              "internalType": "string",
              "name": "expirationDate",
              "type": "string"
            },
            {
              "internalType": "string",
              "name": "supplier",
              "type": "string"
            },
            {
              "internalType": "string",
              "name": "supermarket",
              "type": "string"
            },
            {
              "internalType": "string",
              "name": "location",
              "type": "string"
            },
            {
              "internalType": "uint256",
              "name": "lastUpdate",
              "type": "uint256"
            }
          ],
          "internalType": "struct SupplyChain.Box",
          "name": "_box",
          "type": "tuple"
        }
      ],
      "name": "createBox",
      "outputs": [],
      "stateMutability": "nonpayable",
      "type": "function"
    },
    {
      "inputs": [
        {
          "components": [
            {
              "internalType": "uint256",
              "name": "productId",
              "type": "uint256"
            },
            {
              "internalType": "string",
              "name": "productNameZh",
              "type": "string"
            },
            {
              "internalType": "string",
              "name": "productNameEn",
              "type": "string"
            },
            {
              "internalType": "string",
              "name": "productType",
              "type": "string"
            },
            {
              "internalType": "string",
              "name": "manufacturerNameZh",
              "type": "string"
            },
            {
              "internalType": "string",
              "name": "manufacturerNameEn",
              "type": "string"
            },
            {
              "internalType": "uint256",
              "name": "recommendedTemperature",
              "type": "uint256"
            },
            {
              "internalType": "uint256",
              "name": "requiredTemperatureUpper",
              "type": "uint256"
            },
            {
              "internalType": "uint256",
              "name": "requiredTemperatureLower",
              "type": "uint256"
            },
            {
              "internalType": "uint256",
              "name": "recommendedHumidity",
              "type": "uint256"
            },
            {
              "internalType": "uint256",
              "name": "requiredHumidityUpper",
              "type": "uint256"
            },
            {
              "internalType": "uint256",
              "name": "requiredHumidityLower",
              "type": "uint256"
            },
            {
              "internalType": "uint256",
              "name": "lastUpdate",
              "type": "uint256"
            }
          ],
          "internalType": "struct SupplyChain.Product",
          "name": "_product",
          "type": "tuple"
        }
      ],
      "name": "createProduct",
      "outputs": [],
      "stateMutability": "nonpayable",
      "type": "function"
    },
    {
      "inputs": [],
      "name": "getAllBoxes",
      "outputs": [
        {
          "components": [
            {
              "internalType": "uint256",
              "name": "boxId",
              "type": "uint256"
            },
            {
              "internalType": "uint256",
              "name": "productId",
              "type": "uint256"
            },
            {
              "internalType": "uint256",
              "name": "quantity",
              "type": "uint256"
            },
            {
              "internalType": "uint256",
              "name": "weight",
              "type": "uint256"
            },
            {
              "internalType": "uint256",
              "name": "value",
              "type": "uint256"
            },
            {
              "internalType": "enum SupplyChain.BoxStatus",
              "name": "status",
              "type": "uint8"
            },
            {
              "internalType": "bool",
              "name": "isCompliance",
              "type": "bool"
            },
            {
              "internalType": "string",
              "name": "productionDate",
              "type": "string"
            },
            {
              "internalType": "string",
              "name": "expirationDate",
              "type": "string"
            },
            {
              "internalType": "string",
              "name": "supplier",
              "type": "string"
            },
            {
              "internalType": "string",
              "name": "supermarket",
              "type": "string"
            },
            {
              "internalType": "string",
              "name": "location",
              "type": "string"
            },
            {
              "internalType": "uint256",
              "name": "lastUpdate",
              "type": "uint256"
            }
          ],
          "internalType": "struct SupplyChain.Box[]",
          "name": "",
          "type": "tuple[]"
        }
      ],
      "stateMutability": "view",
      "type": "function"
    },
    {
      "inputs": [],
      "name": "getAllDeliveries",
      "outputs": [
        {
          "components": [
            {
              "internalType": "uint256",
              "name": "deliveryId",
              "type": "uint256"
            },
            {
              "internalType": "uint256[]",
              "name": "boxesId",
              "type": "uint256[]"
            },
            {
              "internalType": "string",
              "name": "truckLicensePlate",
              "type": "string"
            },
            {
              "internalType": "string",
              "name": "sender",
              "type": "string"
            },
            {
              "internalType": "string",
              "name": "senderAddress",
              "type": "string"
            },
            {
              "internalType": "string",
              "name": "receiver",
              "type": "string"
            },
            {
              "internalType": "string",
              "name": "receiverAddress",
              "type": "string"
            },
            {
              "internalType": "string",
              "name": "estimatedDepartureDatetime",
              "type": "string"
            },
            {
              "internalType": "string",
              "name": "actualDepartureDatetime",
              "type": "string"
            },
            {
              "internalType": "string",
              "name": "estimatedArrivalDatetime",
              "type": "string"
            },
            {
              "internalType": "string",
              "name": "actualArrivalDatetime",
              "type": "string"
            },
            {
              "internalType": "uint256",
              "name": "lastUpdate",
              "type": "uint256"
            }
          ],
          "internalType": "struct SupplyChain.Delivery[]",
          "name": "",
          "type": "tuple[]"
        }
      ],
      "stateMutability": "view",
      "type": "function"
    },
    {
      "inputs": [],
      "name": "getAllProducts",
      "outputs": [
        {
          "components": [
            {
              "internalType": "uint256",
              "name": "productId",
              "type": "uint256"
            },
            {
              "internalType": "string",
              "name": "productNameZh",
              "type": "string"
            },
            {
              "internalType": "string",
              "name": "productNameEn",
              "type": "string"
            },
            {
              "internalType": "string",
              "name": "productType",
              "type": "string"
            },
            {
              "internalType": "string",
              "name": "manufacturerNameZh",
              "type": "string"
            },
            {
              "internalType": "string",
              "name": "manufacturerNameEn",
              "type": "string"
            },
            {
              "internalType": "uint256",
              "name": "recommendedTemperature",
              "type": "uint256"
            },
            {
              "internalType": "uint256",
              "name": "requiredTemperatureUpper",
              "type": "uint256"
            },
            {
              "internalType": "uint256",
              "name": "requiredTemperatureLower",
              "type": "uint256"
            },
            {
              "internalType": "uint256",
              "name": "recommendedHumidity",
              "type": "uint256"
            },
            {
              "internalType": "uint256",
              "name": "requiredHumidityUpper",
              "type": "uint256"
            },
            {
              "internalType": "uint256",
              "name": "requiredHumidityLower",
              "type": "uint256"
            },
            {
              "internalType": "uint256",
              "name": "lastUpdate",
              "type": "uint256"
            }
          ],
          "internalType": "struct SupplyChain.Product[]",
          "name": "",
          "type": "tuple[]"
        }
      ],
      "stateMutability": "view",
      "type": "function"
    },
    {
      "inputs": [
        {
          "internalType": "uint256",
          "name": "_productId",
          "type": "uint256"
        },
        {
          "internalType": "string",
          "name": "_expirationDate",
          "type": "string"
        },
        {
          "internalType": "string",
          "name": "_supermarket",
          "type": "string"
        }
      ],
      "name": "getBoxesByPublicSearch",
      "outputs": [
        {
          "internalType": "uint256[]",
          "name": "",
          "type": "uint256[]"
        }
      ],
      "stateMutability": "view",
      "type": "function"
    },
    {
      "inputs": [
        {
          "internalType": "enum SupplyChain.BoxStatus",
          "name": "_status",
          "type": "uint8"
        }
      ],
      "name": "getBoxesByStatus",
      "outputs": [
        {
          "internalType": "uint256[]",
          "name": "",
          "type": "uint256[]"
        }
      ],
      "stateMutability": "view",
      "type": "function"
    },
    {
      "inputs": [
        {
          "components": [
            {
              "internalType": "uint256",
              "name": "deliveryId",
              "type": "uint256"
            },
            {
              "internalType": "uint256[]",
              "name": "boxesId",
              "type": "uint256[]"
            },
            {
              "internalType": "string",
              "name": "truckLicensePlate",
              "type": "string"
            },
            {
              "internalType": "string",
              "name": "sender",
              "type": "string"
            },
            {
              "internalType": "string",
              "name": "senderAddress",
              "type": "string"
            },
            {
              "internalType": "string",
              "name": "receiver",
              "type": "string"
            },
            {
              "internalType": "string",
              "name": "receiverAddress",
              "type": "string"
            },
            {
              "internalType": "string",
              "name": "estimatedDepartureDatetime",
              "type": "string"
            },
            {
              "internalType": "string",
              "name": "actualDepartureDatetime",
              "type": "string"
            },
            {
              "internalType": "string",
              "name": "estimatedArrivalDatetime",
              "type": "string"
            },
            {
              "internalType": "string",
              "name": "actualArrivalDatetime",
              "type": "string"
            },
            {
              "internalType": "uint256",
              "name": "lastUpdate",
              "type": "uint256"
            }
          ],
          "internalType": "struct SupplyChain.Delivery",
          "name": "_delivery",
          "type": "tuple"
        }
      ],
      "name": "readyToDelivery",
      "outputs": [],
      "stateMutability": "nonpayable",
      "type": "function"
    },
    {
      "inputs": [
        {
          "internalType": "uint256",
          "name": "",
          "type": "uint256"
        }
      ],
      "name": "s_boxKeys",
      "outputs": [
        {
          "internalType": "uint256",
          "name": "",
          "type": "uint256"
        }
      ],
      "stateMutability": "view",
      "type": "function"
    },
    {
      "inputs": [
        {
          "internalType": "uint256",
          "name": "",
          "type": "uint256"
        }
      ],
      "name": "s_boxes",
      "outputs": [
        {
          "internalType": "uint256",
          "name": "boxId",
          "type": "uint256"
        },
        {
          "internalType": "uint256",
          "name": "productId",
          "type": "uint256"
        },
        {
          "internalType": "uint256",
          "name": "quantity",
          "type": "uint256"
        },
        {
          "internalType": "uint256",
          "name": "weight",
          "type": "uint256"
        },
        {
          "internalType": "uint256",
          "name": "value",
          "type": "uint256"
        },
        {
          "internalType": "enum SupplyChain.BoxStatus",
          "name": "status",
          "type": "uint8"
        },
        {
          "internalType": "bool",
          "name": "isCompliance",
          "type": "bool"
        },
        {
          "internalType": "string",
          "name": "productionDate",
          "type": "string"
        },
        {
          "internalType": "string",
          "name": "expirationDate",
          "type": "string"
        },
        {
          "internalType": "string",
          "name": "supplier",
          "type": "string"
        },
        {
          "internalType": "string",
          "name": "supermarket",
          "type": "string"
        },
        {
          "internalType": "string",
          "name": "location",
          "type": "string"
        },
        {
          "internalType": "uint256",
          "name": "lastUpdate",
          "type": "uint256"
        }
      ],
      "stateMutability": "view",
      "type": "function"
    },
    {
      "inputs": [
        {
          "internalType": "uint256",
          "name": "",
          "type": "uint256"
        }
      ],
      "name": "s_deliveries",
      "outputs": [
        {
          "internalType": "uint256",
          "name": "deliveryId",
          "type": "uint256"
        },
        {
          "internalType": "string",
          "name": "truckLicensePlate",
          "type": "string"
        },
        {
          "internalType": "string",
          "name": "sender",
          "type": "string"
        },
        {
          "internalType": "string",
          "name": "senderAddress",
          "type": "string"
        },
        {
          "internalType": "string",
          "name": "receiver",
          "type": "string"
        },
        {
          "internalType": "string",
          "name": "receiverAddress",
          "type": "string"
        },
        {
          "internalType": "string",
          "name": "estimatedDepartureDatetime",
          "type": "string"
        },
        {
          "internalType": "string",
          "name": "actualDepartureDatetime",
          "type": "string"
        },
        {
          "internalType": "string",
          "name": "estimatedArrivalDatetime",
          "type": "string"
        },
        {
          "internalType": "string",
          "name": "actualArrivalDatetime",
          "type": "string"
        },
        {
          "internalType": "uint256",
          "name": "lastUpdate",
          "type": "uint256"
        }
      ],
      "stateMutability": "view",
      "type": "function"
    },
    {
      "inputs": [
        {
          "internalType": "uint256",
          "name": "",
          "type": "uint256"
        }
      ],
      "name": "s_deliveryKeys",
      "outputs": [
        {
          "internalType": "uint256",
          "name": "",
          "type": "uint256"
        }
      ],
      "stateMutability": "view",
      "type": "function"
    },
    {
      "inputs": [
        {
          "internalType": "uint256",
          "name": "",
          "type": "uint256"
        }
      ],
      "name": "s_productKeys",
      "outputs": [
        {
          "internalType": "uint256",
          "name": "",
          "type": "uint256"
        }
      ],
      "stateMutability": "view",
      "type": "function"
    },
    {
      "inputs": [
        {
          "internalType": "uint256",
          "name": "",
          "type": "uint256"
        }
      ],
      "name": "s_products",
      "outputs": [
        {
          "internalType": "uint256",
          "name": "productId",
          "type": "uint256"
        },
        {
          "internalType": "string",
          "name": "productNameZh",
          "type": "string"
        },
        {
          "internalType": "string",
          "name": "productNameEn",
          "type": "string"
        },
        {
          "internalType": "string",
          "name": "productType",
          "type": "string"
        },
        {
          "internalType": "string",
          "name": "manufacturerNameZh",
          "type": "string"
        },
        {
          "internalType": "string",
          "name": "manufacturerNameEn",
          "type": "string"
        },
        {
          "internalType": "uint256",
          "name": "recommendedTemperature",
          "type": "uint256"
        },
        {
          "internalType": "uint256",
          "name": "requiredTemperatureUpper",
          "type": "uint256"
        },
        {
          "internalType": "uint256",
          "name": "requiredTemperatureLower",
          "type": "uint256"
        },
        {
          "internalType": "uint256",
          "name": "recommendedHumidity",
          "type": "uint256"
        },
        {
          "internalType": "uint256",
          "name": "requiredHumidityUpper",
          "type": "uint256"
        },
        {
          "internalType": "uint256",
          "name": "requiredHumidityLower",
          "type": "uint256"
        },
        {
          "internalType": "uint256",
          "name": "lastUpdate",
          "type": "uint256"
        }
      ],
      "stateMutability": "view",
      "type": "function"
    },
    {
      "inputs": [
        {
          "internalType": "uint256",
          "name": "_deliveryId",
          "type": "uint256"
        },
        {
          "internalType": "string",
          "name": "_actualDepartureDatetime",
          "type": "string"
        }
      ],
      "name": "sendBox",
      "outputs": [],
      "stateMutability": "nonpayable",
      "type": "function"
    },
    {
      "inputs": [
        {
          "internalType": "uint256",
          "name": "_deliveryId",
          "type": "uint256"
        },
        {
          "internalType": "string",
          "name": "_actualArrivalDatetime",
          "type": "string"
        }
      ],
      "name": "signForBox",
      "outputs": [],
      "stateMutability": "nonpayable",
      "type": "function"
    },
    {
      "inputs": [
        {
          "internalType": "uint256",
          "name": "_boxId",
          "type": "uint256"
        }
      ],
      "name": "supermarketHitBoxToTheStoreShelves",
      "outputs": [],
      "stateMutability": "nonpayable",
      "type": "function"
    },
    {
      "inputs": [
        {
          "internalType": "uint256",
          "name": "_boxId",
          "type": "uint256"
        },
        {
          "internalType": "string",
          "name": "_to",
          "type": "string"
        }
      ],
      "name": "supermarketStoredBox",
      "outputs": [],
      "stateMutability": "nonpayable",
      "type": "function"
    },
    {
      "inputs": [
        {
          "internalType": "uint256",
          "name": "_boxId",
          "type": "uint256"
        },
        {
          "internalType": "string",
          "name": "_to",
          "type": "string"
        }
      ],
      "name": "supplierStoredBox",
      "outputs": [],
      "stateMutability": "nonpayable",
      "type": "function"
    },
    {
      "inputs": [
        {
          "internalType": "uint256",
          "name": "_boxId",
          "type": "uint256"
        },
        {
          "internalType": "uint256",
          "name": "_temperature",
          "type": "uint256"
        },
        {
          "internalType": "uint256",
          "name": "_humidity",
          "type": "uint256"
        }
      ],
      "name": "trackBox",
      "outputs": [],
      "stateMutability": "nonpayable",
      "type": "function"
    }
  ],
  "bytecode": "0x608060405234801561001057600080fd5b50600080805560018190556002556150f78061002d6000396000f3fe608060405234801561001057600080fd5b50600436106101375760003560e01c806392b0d6cf116100b8578063bed34bba1161007c578063bed34bba146102ca578063cdc10e6d146102ed578063e40ce99d14610300578063ea7ccc9314610313578063f4e6947a14610326578063fc53f8d91461033957600080fd5b806392b0d6cf1461025257806396c1c73b1461027e57806398289980146102915780639c7ae614146102a4578063b7fbb126146102b757600080fd5b80632ae2e709116100ff5780632ae2e709146101c15780632b61e932146101d457806346bb3011146101e75780638f00c31514610211578063915324971461022657600080fd5b8063016213c01461013c57806302ee3a521461016257806306310c9d1461017757806308cad7e81461018c5780630cec8e15146101ac575b600080fd5b61014f61014a3660046138bf565b61034c565b6040519081526020015b60405180910390f35b61016a61036d565b6040516101599190613928565b61017f6107c1565b6040516101599190613a80565b61019f61019a366004613bfa565b610be7565b6040516101599190613cae565b6101bf6101ba366004613cc8565b610fb8565b005b6101bf6101cf366004613cc8565b611163565b6101bf6101e2366004613cc8565b61131e565b6101fa6101f53660046138bf565b611441565b6040516101599b9a99989796959493929190613d13565b61021961195c565b6040516101599190613de9565b6102396102343660046138bf565b611faa565b6040516101599d9c9b9a99989796959493929190613f54565b6102656102603660046138bf565b6122be565b6040516101599d9c9b9a9998979695949392919061400b565b6101bf61028c366004613cc8565b6125c5565b6101bf61029f3660046141b6565b6126b3565b6101bf6102b236600461430a565b61281e565b6101bf6102c5366004614345565b612cd7565b6102dd6102d8366004614371565b613127565b6040519015158152602001610159565b61014f6102fb3660046138bf565b613181565b6101bf61030e3660046138bf565b613191565b6101bf6103213660046143f8565b6132be565b61019f610334366004614560565b613487565b61014f6103473660046138bf565b6135ce565b6007818154811061035c57600080fd5b600091825260209091200154905081565b6006546060906000816001600160401b0381111561038d5761038d6140b5565b60405190808252806020026020018201604052801561042957816020015b610416604051806101a00160405280600081526020016060815260200160608152602001606081526020016060815260200160608152602001600081526020016000815260200160008152602001600081526020016000815260200160008152602001600081525090565b8152602001906001900390816103ab5790505b50905060005b828110156107ba5760036000610446836001614591565b8152602001908152602001600020604051806101a00160405290816000820154815260200160018201805461047a906145a4565b80601f01602080910402602001604051908101604052809291908181526020018280546104a6906145a4565b80156104f35780601f106104c8576101008083540402835291602001916104f3565b820191906000526020600020905b8154815290600101906020018083116104d657829003601f168201915b5050505050815260200160028201805461050c906145a4565b80601f0160208091040260200160405190810160405280929190818152602001828054610538906145a4565b80156105855780601f1061055a57610100808354040283529160200191610585565b820191906000526020600020905b81548152906001019060200180831161056857829003601f168201915b5050505050815260200160038201805461059e906145a4565b80601f01602080910402602001604051908101604052809291908181526020018280546105ca906145a4565b80156106175780601f106105ec57610100808354040283529160200191610617565b820191906000526020600020905b8154815290600101906020018083116105fa57829003601f168201915b50505050508152602001600482018054610630906145a4565b80601f016020809104026020016040519081016040528092919081815260200182805461065c906145a4565b80156106a95780601f1061067e576101008083540402835291602001916106a9565b820191906000526020600020905b81548152906001019060200180831161068c57829003601f168201915b505050505081526020016005820180546106c2906145a4565b80601f01602080910402602001604051908101604052809291908181526020018280546106ee906145a4565b801561073b5780601f106107105761010080835404028352916020019161073b565b820191906000526020600020905b81548152906001019060200180831161071e57829003601f168201915b5050505050815260200160068201548152602001600782015481526020016008820154815260200160098201548152602001600a8201548152602001600b8201548152602001600c8201548152505082828151811061079c5761079c6145de565b602002602001018190525080806107b2906145f4565b91505061042f565b5092915050565b6007546060906000816001600160401b038111156107e1576107e16140b5565b60405190808252806020026020018201604052801561081a57816020015b610807613783565b8152602001906001900390816107ff5790505b50905060005b828110156107ba5760046000610837836001614591565b8152602001908152602001600020604051806101a001604052908160008201548152602001600182015481526020016002820154815260200160038201548152602001600482015481526020016005820160009054906101000a900460ff1660088111156108a7576108a7613a48565b60088111156108b8576108b8613a48565b81526005820154610100900460ff16151560208201526006820180546040909201916108e3906145a4565b80601f016020809104026020016040519081016040528092919081815260200182805461090f906145a4565b801561095c5780601f106109315761010080835404028352916020019161095c565b820191906000526020600020905b81548152906001019060200180831161093f57829003601f168201915b50505050508152602001600782018054610975906145a4565b80601f01602080910402602001604051908101604052809291908181526020018280546109a1906145a4565b80156109ee5780601f106109c3576101008083540402835291602001916109ee565b820191906000526020600020905b8154815290600101906020018083116109d157829003601f168201915b50505050508152602001600882018054610a07906145a4565b80601f0160208091040260200160405190810160405280929190818152602001828054610a33906145a4565b8015610a805780601f10610a5557610100808354040283529160200191610a80565b820191906000526020600020905b815481529060010190602001808311610a6357829003601f168201915b50505050508152602001600982018054610a99906145a4565b80601f0160208091040260200160405190810160405280929190818152602001828054610ac5906145a4565b8015610b125780601f10610ae757610100808354040283529160200191610b12565b820191906000526020600020905b815481529060010190602001808311610af557829003601f168201915b50505050508152602001600a82018054610b2b906145a4565b80601f0160208091040260200160405190810160405280929190818152602001828054610b57906145a4565b8015610ba45780601f10610b7957610100808354040283529160200191610ba4565b820191906000526020600020905b815481529060010190602001808311610b8757829003601f168201915b50505050508152602001600b82015481525050828281518110610bc957610bc96145de565b60200260200101819052508080610bdf906145f4565b915050610820565b6060600060015b6000548111610df45760008181526004602052604090206001015488148015610ced575060008181526004602052604090206007018054610ced9190610c33906145a4565b80601f0160208091040260200160405190810160405280929190818152602001828054610c5f906145a4565b8015610cac5780601f10610c8157610100808354040283529160200191610cac565b820191906000526020600020905b815481529060010190602001808311610c8f57829003601f168201915b505050505088888080601f01602080910402602001604051908101604052809392919081815260200183838082843760009201919091525061312792505050565b8015610dcf575060008181526004602052604090206009018054610dcf9190610d15906145a4565b80601f0160208091040260200160405190810160405280929190818152602001828054610d41906145a4565b8015610d8e5780601f10610d6357610100808354040283529160200191610d8e565b820191906000526020600020905b815481529060010190602001808311610d7157829003601f168201915b505050505086868080601f01602080910402602001604051908101604052809392919081815260200183838082843760009201919091525061312792505050565b15610de25781610dde816145f4565b9250505b80610dec816145f4565b915050610bee565b506000816001600160401b03811115610e0f57610e0f6140b5565b604051908082528060200260200182016040528015610e38578160200160208202803683370190505b509050600060015b6000548111610faa576000818152600460205260409020600101548a148015610f3f575060008181526004602052604090206007018054610f3f9190610e85906145a4565b80601f0160208091040260200160405190810160405280929190818152602001828054610eb1906145a4565b8015610efe5780601f10610ed357610100808354040283529160200191610efe565b820191906000526020600020905b815481529060010190602001808311610ee157829003601f168201915b50505050508a8a8080601f01602080910402602001604051908101604052809392919081815260200183838082843760009201919091525061312792505050565b8015610f67575060008181526004602052604090206009018054610f679190610c33906145a4565b15610f985780838381518110610f7f57610f7f6145de565b602090810291909101015281610f94816145f4565b9250505b80610fa2816145f4565b915050610e40565b509098975050505050505050565b6000838152600560205260409020600a8101610fd5838583614671565b5042600b820155600181015460005b8181101561112257600060046000856001018481548110611007576110076145de565b906000526020600020015481526020019081526020016000209050600081600a018054611033906145a4565b80601f016020809104026020016040519081016040528092919081815260200182805461105f906145a4565b80156110ac5780601f10611081576101008083540402835291602001916110ac565b820191906000526020600020905b81548152906001019060200180831161108f57829003601f168201915b505050505090508460050182600a0190816110c7919061472a565b5060058201805460ff1916600417905542600b83018190556040516000805160206150a2833981519152916111059185918591600a84019190614964565b60405180910390a15050808061111a906145f4565b915050610fe4565b507f252a2c084d32771a74fb405f631bdc3772715ba3b06d10320b3a4dfd04b1a1538242604051611154929190614aeb565b60405180910390a15050505050565b600083815260056020526040902060088101611180838583614671565b5042600b820155600181015460005b818110156112ec576000600460008560010184815481106111b2576111b26145de565b906000526020600020015481526020019081526020016000209050600081600a0180546111de906145a4565b80601f016020809104026020016040519081016040528092919081815260200182805461120a906145a4565b80156112575780601f1061122c57610100808354040283529160200191611257565b820191906000526020600020905b81548152906001019060200180831161123a57829003601f168201915b50505050509050846002016040516020016112729190614b80565b60405160208183030381529060405282600a0190816112919190614b9c565b5060058201805460ff1916600317905542600b83018190556040516000805160206150a2833981519152916112cf9185918591600a84019190614964565b60405180910390a1505080806112e4906145f4565b91505061118f565b507fe516ca0b140bae304828fa12838f1bf9050d933e4358add1968f9b5ede8624508242604051611154929190614aeb565b6000838152600460205260408120600a8101805491929161133e906145a4565b80601f016020809104026020016040519081016040528092919081815260200182805461136a906145a4565b80156113b75780601f1061138c576101008083540402835291602001916113b7565b820191906000526020600020905b81548152906001019060200180831161139a57829003601f168201915b5050505060058401805460ff19166001179055506040519091506113e690859085906008860190602001614c4d565b60405160208183030381529060405282600a0190816114059190614b9c565b5042600b83018190556000868152600460205260409081902090516000805160206150a283398151915292611154929185918991899190614c7f565b60056020526000908152604090208054600282018054919291611463906145a4565b80601f016020809104026020016040519081016040528092919081815260200182805461148f906145a4565b80156114dc5780601f106114b1576101008083540402835291602001916114dc565b820191906000526020600020905b8154815290600101906020018083116114bf57829003601f168201915b5050505050908060030180546114f1906145a4565b80601f016020809104026020016040519081016040528092919081815260200182805461151d906145a4565b801561156a5780601f1061153f5761010080835404028352916020019161156a565b820191906000526020600020905b81548152906001019060200180831161154d57829003601f168201915b50505050509080600401805461157f906145a4565b80601f01602080910402602001604051908101604052809291908181526020018280546115ab906145a4565b80156115f85780601f106115cd576101008083540402835291602001916115f8565b820191906000526020600020905b8154815290600101906020018083116115db57829003601f168201915b50505050509080600501805461160d906145a4565b80601f0160208091040260200160405190810160405280929190818152602001828054611639906145a4565b80156116865780601f1061165b57610100808354040283529160200191611686565b820191906000526020600020905b81548152906001019060200180831161166957829003601f168201915b50505050509080600601805461169b906145a4565b80601f01602080910402602001604051908101604052809291908181526020018280546116c7906145a4565b80156117145780601f106116e957610100808354040283529160200191611714565b820191906000526020600020905b8154815290600101906020018083116116f757829003601f168201915b505050505090806007018054611729906145a4565b80601f0160208091040260200160405190810160405280929190818152602001828054611755906145a4565b80156117a25780601f10611777576101008083540402835291602001916117a2565b820191906000526020600020905b81548152906001019060200180831161178557829003601f168201915b5050505050908060080180546117b7906145a4565b80601f01602080910402602001604051908101604052809291908181526020018280546117e3906145a4565b80156118305780601f1061180557610100808354040283529160200191611830565b820191906000526020600020905b81548152906001019060200180831161181357829003601f168201915b505050505090806009018054611845906145a4565b80601f0160208091040260200160405190810160405280929190818152602001828054611871906145a4565b80156118be5780601f10611893576101008083540402835291602001916118be565b820191906000526020600020905b8154815290600101906020018083116118a157829003601f168201915b50505050509080600a0180546118d3906145a4565b80601f01602080910402602001604051908101604052809291908181526020018280546118ff906145a4565b801561194c5780601f106119215761010080835404028352916020019161194c565b820191906000526020600020905b81548152906001019060200180831161192f57829003601f168201915b50505050509080600b015490508b565b6008546060906000816001600160401b0381111561197c5761197c6140b5565b6040519080825280602002602001820160405280156119b557816020015b6119a26137fe565b81526020019060019003908161199a5790505b50905060005b828110156107ba57600560006119d2836001614591565b8152602001908152602001600020604051806101800160405290816000820154815260200160018201805480602002602001604051908101604052809291908181526020018280548015611a4557602002820191906000526020600020905b815481526020019060010190808311611a31575b50505050508152602001600282018054611a5e906145a4565b80601f0160208091040260200160405190810160405280929190818152602001828054611a8a906145a4565b8015611ad75780601f10611aac57610100808354040283529160200191611ad7565b820191906000526020600020905b815481529060010190602001808311611aba57829003601f168201915b50505050508152602001600382018054611af0906145a4565b80601f0160208091040260200160405190810160405280929190818152602001828054611b1c906145a4565b8015611b695780601f10611b3e57610100808354040283529160200191611b69565b820191906000526020600020905b815481529060010190602001808311611b4c57829003601f168201915b50505050508152602001600482018054611b82906145a4565b80601f0160208091040260200160405190810160405280929190818152602001828054611bae906145a4565b8015611bfb5780601f10611bd057610100808354040283529160200191611bfb565b820191906000526020600020905b815481529060010190602001808311611bde57829003601f168201915b50505050508152602001600582018054611c14906145a4565b80601f0160208091040260200160405190810160405280929190818152602001828054611c40906145a4565b8015611c8d5780601f10611c6257610100808354040283529160200191611c8d565b820191906000526020600020905b815481529060010190602001808311611c7057829003601f168201915b50505050508152602001600682018054611ca6906145a4565b80601f0160208091040260200160405190810160405280929190818152602001828054611cd2906145a4565b8015611d1f5780601f10611cf457610100808354040283529160200191611d1f565b820191906000526020600020905b815481529060010190602001808311611d0257829003601f168201915b50505050508152602001600782018054611d38906145a4565b80601f0160208091040260200160405190810160405280929190818152602001828054611d64906145a4565b8015611db15780601f10611d8657610100808354040283529160200191611db1565b820191906000526020600020905b815481529060010190602001808311611d9457829003601f168201915b50505050508152602001600882018054611dca906145a4565b80601f0160208091040260200160405190810160405280929190818152602001828054611df6906145a4565b8015611e435780601f10611e1857610100808354040283529160200191611e43565b820191906000526020600020905b815481529060010190602001808311611e2657829003601f168201915b50505050508152602001600982018054611e5c906145a4565b80601f0160208091040260200160405190810160405280929190818152602001828054611e88906145a4565b8015611ed55780601f10611eaa57610100808354040283529160200191611ed5565b820191906000526020600020905b815481529060010190602001808311611eb857829003601f168201915b50505050508152602001600a82018054611eee906145a4565b80601f0160208091040260200160405190810160405280929190818152602001828054611f1a906145a4565b8015611f675780601f10611f3c57610100808354040283529160200191611f67565b820191906000526020600020905b815481529060010190602001808311611f4a57829003601f168201915b50505050508152602001600b82015481525050828281518110611f8c57611f8c6145de565b60200260200101819052508080611fa2906145f4565b9150506119bb565b60046020819052600091825260409091208054600182015460028301546003840154948401546005850154600686018054959794969395929360ff808416946101009094041692909190611ffd906145a4565b80601f0160208091040260200160405190810160405280929190818152602001828054612029906145a4565b80156120765780601f1061204b57610100808354040283529160200191612076565b820191906000526020600020905b81548152906001019060200180831161205957829003601f168201915b50505050509080600701805461208b906145a4565b80601f01602080910402602001604051908101604052809291908181526020018280546120b7906145a4565b80156121045780601f106120d957610100808354040283529160200191612104565b820191906000526020600020905b8154815290600101906020018083116120e757829003601f168201915b505050505090806008018054612119906145a4565b80601f0160208091040260200160405190810160405280929190818152602001828054612145906145a4565b80156121925780601f1061216757610100808354040283529160200191612192565b820191906000526020600020905b81548152906001019060200180831161217557829003601f168201915b5050505050908060090180546121a7906145a4565b80601f01602080910402602001604051908101604052809291908181526020018280546121d3906145a4565b80156122205780601f106121f557610100808354040283529160200191612220565b820191906000526020600020905b81548152906001019060200180831161220357829003601f168201915b50505050509080600a018054612235906145a4565b80601f0160208091040260200160405190810160405280929190818152602001828054612261906145a4565b80156122ae5780601f10612283576101008083540402835291602001916122ae565b820191906000526020600020905b81548152906001019060200180831161229157829003601f168201915b50505050509080600b015490508d565b600360205260009081526040902080546001820180549192916122e0906145a4565b80601f016020809104026020016040519081016040528092919081815260200182805461230c906145a4565b80156123595780601f1061232e57610100808354040283529160200191612359565b820191906000526020600020905b81548152906001019060200180831161233c57829003601f168201915b50505050509080600201805461236e906145a4565b80601f016020809104026020016040519081016040528092919081815260200182805461239a906145a4565b80156123e75780601f106123bc576101008083540402835291602001916123e7565b820191906000526020600020905b8154815290600101906020018083116123ca57829003601f168201915b5050505050908060030180546123fc906145a4565b80601f0160208091040260200160405190810160405280929190818152602001828054612428906145a4565b80156124755780601f1061244a57610100808354040283529160200191612475565b820191906000526020600020905b81548152906001019060200180831161245857829003601f168201915b50505050509080600401805461248a906145a4565b80601f01602080910402602001604051908101604052809291908181526020018280546124b6906145a4565b80156125035780601f106124d857610100808354040283529160200191612503565b820191906000526020600020905b8154815290600101906020018083116124e657829003601f168201915b505050505090806005018054612518906145a4565b80601f0160208091040260200160405190810160405280929190818152602001828054612544906145a4565b80156125915780601f1061256657610100808354040283529160200191612591565b820191906000526020600020905b81548152906001019060200180831161257457829003601f168201915b50505050509080600601549080600701549080600801549080600901549080600a01549080600b01549080600c015490508d565b6000838152600460205260408120600a810180549192916125e5906145a4565b80601f0160208091040260200160405190810160405280929190818152602001828054612611906145a4565b801561265e5780601f106126335761010080835404028352916020019161265e565b820191906000526020600020905b81548152906001019060200180831161264157829003601f168201915b505050506005848101805460ff19169091179055509050600a8201612684848683614671565b5042600b83018190556040516000805160206150a2833981519152916111549185918591600a84019190614964565b600180549060006126c3836145f4565b909155505060018054808352426101808401526000908152600360209081526040909120835181559083015183928201906126fe9082614b9c565b50604082015160028201906127139082614b9c565b50606082015160038201906127289082614b9c565b506080820151600482019061273d9082614b9c565b5060a082015160058201906127529082614b9c565b5060c082015160068083019190915560e0830151600783015561010083015160088301556101208301516009830155610140830151600a830155610160830151600b83015561018090920151600c909101558151815460018181019093557ff652222313e28459528d920b65115c16c04f3efc82aaedc97be59f3f377c0d3f0155546000908152600360205260409081902090517f48909a1f655cada527fc9d72df0f8a0e605aeb53d37da1ffc9b49839c62b49ea91612813914290614ce1565b60405180910390a150565b600061283161282c83614e45565b6135de565b6020810151519091506000816001600160401b03811115612854576128546140b5565b60405190808252806020026020018201604052801561288d57816020015b61287a613783565b8152602001906001900390816128725790505b50905060005b82811015612cd057600060046000866020015184815181106128b7576128b76145de565b6020026020010151815260200190815260200160002090508460a001518160090190816128e49190614b9c565b5060058101805460ff1916600217905542600b8201556020850151805160049160009185908110612917576129176145de565b60200260200101518152602001908152602001600020604051806101a001604052908160008201548152602001600182015481526020016002820154815260200160038201548152602001600482015481526020016005820160009054906101000a900460ff16600881111561298f5761298f613a48565b60088111156129a0576129a0613a48565b81526005820154610100900460ff16151560208201526006820180546040909201916129cb906145a4565b80601f01602080910402602001604051908101604052809291908181526020018280546129f7906145a4565b8015612a445780601f10612a1957610100808354040283529160200191612a44565b820191906000526020600020905b815481529060010190602001808311612a2757829003601f168201915b50505050508152602001600782018054612a5d906145a4565b80601f0160208091040260200160405190810160405280929190818152602001828054612a89906145a4565b8015612ad65780601f10612aab57610100808354040283529160200191612ad6565b820191906000526020600020905b815481529060010190602001808311612ab957829003601f168201915b50505050508152602001600882018054612aef906145a4565b80601f0160208091040260200160405190810160405280929190818152602001828054612b1b906145a4565b8015612b685780601f10612b3d57610100808354040283529160200191612b68565b820191906000526020600020905b815481529060010190602001808311612b4b57829003601f168201915b50505050508152602001600982018054612b81906145a4565b80601f0160208091040260200160405190810160405280929190818152602001828054612bad906145a4565b8015612bfa5780601f10612bcf57610100808354040283529160200191612bfa565b820191906000526020600020905b815481529060010190602001808311612bdd57829003601f168201915b50505050508152602001600a82018054612c13906145a4565b80601f0160208091040260200160405190810160405280929190818152602001828054612c3f906145a4565b8015612c8c5780601f10612c6157610100808354040283529160200191612c8c565b820191906000526020600020905b815481529060010190602001808311612c6f57829003601f168201915b50505050508152602001600b82015481525050838381518110612cb157612cb16145de565b6020026020010181905250508080612cc8906145f4565b915050612893565b5050505050565b600083815260046020908152604080832060018082015485526003845282852083516101a08101909452805484529081018054929594919291840191612d1c906145a4565b80601f0160208091040260200160405190810160405280929190818152602001828054612d48906145a4565b8015612d955780601f10612d6a57610100808354040283529160200191612d95565b820191906000526020600020905b815481529060010190602001808311612d7857829003601f168201915b50505050508152602001600282018054612dae906145a4565b80601f0160208091040260200160405190810160405280929190818152602001828054612dda906145a4565b8015612e275780601f10612dfc57610100808354040283529160200191612e27565b820191906000526020600020905b815481529060010190602001808311612e0a57829003601f168201915b50505050508152602001600382018054612e40906145a4565b80601f0160208091040260200160405190810160405280929190818152602001828054612e6c906145a4565b8015612eb95780601f10612e8e57610100808354040283529160200191612eb9565b820191906000526020600020905b815481529060010190602001808311612e9c57829003601f168201915b50505050508152602001600482018054612ed2906145a4565b80601f0160208091040260200160405190810160405280929190818152602001828054612efe906145a4565b8015612f4b5780601f10612f2057610100808354040283529160200191612f4b565b820191906000526020600020905b815481529060010190602001808311612f2e57829003601f168201915b50505050508152602001600582018054612f64906145a4565b80601f0160208091040260200160405190810160405280929190818152602001828054612f90906145a4565b8015612fdd5780601f10612fb257610100808354040283529160200191612fdd565b820191906000526020600020905b815481529060010190602001808311612fc057829003601f168201915b505050918352505060068201546020820152600782015460408201526008820154606082015260098201546080820152600a82015460a0820152600b82015460c0820152600c9091015460e0918201526101008201519082015161016083015161014084015193945091929091908787600086831080159061305f5750858311155b905060008583101580156130735750848311155b905060008280156130815750815b905080156130cb577fe17a84dedb5caf9dec5db97376b4ee741b8e6a435f64a56347c4d1e1ce0156908b8686426040516130be9493929190614ff8565b60405180910390a1613117565b60058b01805461ff00191690556040517fdfd037f4c5b67b83c05fd6146ccff14b8bab8e5950f23f214b5e2a21bb6a4be29061310e908d90889088904290614ff8565b60405180910390a15b5050505050505050505050505050565b60008160405160200161313a9190615027565b60405160208183030381529060405280519060200120836040516020016131619190615027565b604051602081830303815290604052805190602001201490505b92915050565b6006818154811061035c57600080fd5b6000818152600460205260408120600a810180549192916131b1906145a4565b80601f01602080910402602001604051908101604052809291908181526020018280546131dd906145a4565b801561322a5780601f106131ff5761010080835404028352916020019161322a565b820191906000526020600020905b81548152906001019060200180831161320d57829003601f168201915b50505050509050604051602001613254906c53746f7265205368656c76657360981b8152600d0190565b60405160208183030381529060405282600a0190816132739190614b9c565b5060058201805460ff1916600617905542600b83018190556040516000805160206150a2833981519152916132b19185918591600a84019190614964565b60405180910390a1505050565b6000805490806132cd836145f4565b909155505060005481526101608101516101208201516040516132f4929190602001615043565b60408051601f1981840301815291815261016083019190915242610180830152600080548152600460208181529183902084518155918401516001808401919091559284015160028301556060840151600383015560808401519082015560a0830151600582018054859460ff199091169083600881111561337857613378613a48565b021790555060c08201516005820180549115156101000261ff001990921691909117905560e082015160068201906133b09082614b9c565b5061010082015160078201906133c69082614b9c565b5061012082015160088201906133dc9082614b9c565b5061014082015160098201906133f29082614b9c565b50610160820151600a8201906134089082614b9c565b506101809190910151600b90910155805160078054600181019091557fa66cc928b5edb82af9bd49922954155ab7b0942694bea4ce44661d9a8736c6880155600080548152600460205260409081902090517f6f313fa5cb666fe6c55cc1f4348f58abffb1c620640627200baf7cb968d913dd9161281391429061508e565b6060600060015b60005481116134f4578360088111156134a9576134a9613a48565b60008281526004602052604090206005015460ff1660088111156134cf576134cf613a48565b036134e257816134de816145f4565b9250505b806134ec816145f4565b91505061348e565b506000816001600160401b0381111561350f5761350f6140b5565b604051908082528060200260200182016040528015613538578160200160208202803683370190505b509050600060015b60005481116135c45785600881111561355b5761355b613a48565b60008281526004602052604090206005015460ff16600881111561358157613581613a48565b036135b25780838381518110613599576135996145de565b6020908102919091010152816135ae816145f4565b9250505b806135bc816145f4565b915050613540565b5090949350505050565b6008818154811061035c57600080fd5b6135e66137fe565b600280549060006135f6836145f4565b909155505060025480835242610160840152600090815260056020908152604090912083518155818401518051859361363692600185019291019061385f565b506040820151600282019061364b9082614b9c565b50606082015160038201906136609082614b9c565b50608082015160048201906136759082614b9c565b5060a0820151600582019061368a9082614b9c565b5060c0820151600682019061369f9082614b9c565b5060e082015160078201906136b49082614b9c565b5061010082015160088201906136ca9082614b9c565b5061012082015160098201906136e09082614b9c565b50610140820151600a8201906136f69082614b9c565b506101609190910151600b90910155815160088054600181019091557ff3f7a9fe364faab93b216da50a3214154f22a0a2b415b23a84c8169e8b636ee301556002546000908152600560205260409081902090517fb2497b2a5b07ede99530bcca149d8f3dba90de9ae51270f4f75f42c05deae78391613777914290614aeb565b60405180910390a15090565b604051806101a001604052806000815260200160008152602001600081526020016000815260200160008152602001600060088111156137c5576137c5613a48565b81526020016000151581526020016060815260200160608152602001606081526020016060815260200160608152602001600081525090565b6040518061018001604052806000815260200160608152602001606081526020016060815260200160608152602001606081526020016060815260200160608152602001606081526020016060815260200160608152602001600081525090565b82805482825590600052602060002090810192821561389a579160200282015b8281111561389a57825182559160200191906001019061387f565b506138a69291506138aa565b5090565b5b808211156138a657600081556001016138ab565b6000602082840312156138d157600080fd5b5035919050565b60005b838110156138f35781810151838201526020016138db565b50506000910152565b600081518084526139148160208601602086016138d8565b601f01601f19169290920160200192915050565b60006020808301818452808551808352604092508286019150828160051b87010184880160005b83811015610faa57603f1989840301855281516101a08151855288820151818a87015261397e828701826138fc565b915050878201518582038987015261399682826138fc565b915050606080830151868303828801526139b083826138fc565b92505050608080830151868303828801526139cb83826138fc565b9250505060a080830151868303828801526139e683826138fc565b60c0858101519089015260e080860151908901526101008086015190890152610120808601519089015261014080860151908901526101608086015190890152610180948501519490970193909352505050938601939086019060010161394f565b634e487b7160e01b600052602160045260246000fd5b60098110613a7c57634e487b7160e01b600052602160045260246000fd5b9052565b60006020808301818452808551808352604092508286019150828160051b87010184880160005b83811015610faa57888303603f1901855281518051845287810151888501528681015187850152606080820151908501526080808201519085015260a0808201516101a09190613af982880182613a5e565b505060c08281015115159086015260e080830151818701839052613b1f838801826138fc565b925050506101008083015186830382880152613b3b83826138fc565b925050506101208083015186830382880152613b5783826138fc565b925050506101408083015186830382880152613b7383826138fc565b925050506101608083015186830382880152613b8f83826138fc565b610180948501519790940196909652505094870194925090860190600101613aa7565b60008083601f840112613bc457600080fd5b5081356001600160401b03811115613bdb57600080fd5b602083019150836020828501011115613bf357600080fd5b9250929050565b600080600080600060608688031215613c1257600080fd5b8535945060208601356001600160401b0380821115613c3057600080fd5b613c3c89838a01613bb2565b90965094506040880135915080821115613c5557600080fd5b50613c6288828901613bb2565b969995985093965092949392505050565b600081518084526020808501945080840160005b83811015613ca357815187529582019590820190600101613c87565b509495945050505050565b602081526000613cc16020830184613c73565b9392505050565b600080600060408486031215613cdd57600080fd5b8335925060208401356001600160401b03811115613cfa57600080fd5b613d0686828701613bb2565b9497909650939450505050565b60006101608d8352806020840152613d2d8184018e6138fc565b90508281036040840152613d41818d6138fc565b90508281036060840152613d55818c6138fc565b90508281036080840152613d69818b6138fc565b905082810360a0840152613d7d818a6138fc565b905082810360c0840152613d9181896138fc565b905082810360e0840152613da581886138fc565b9050828103610100840152613dba81876138fc565b9050828103610120840152613dcf81866138fc565b915050826101408301529c9b505050505050505050505050565b60006020808301818452808551808352604092508286019150828160051b87010184880160005b83811015610faa57603f1989840301855281516101808151855288820151818a870152613e3f82870182613c73565b9150508782015185820389870152613e5782826138fc565b91505060608083015186830382880152613e7183826138fc565b9250505060808083015186830382880152613e8c83826138fc565b9250505060a08083015186830382880152613ea783826138fc565b9250505060c08083015186830382880152613ec283826138fc565b9250505060e08083015186830382880152613edd83826138fc565b925050506101008083015186830382880152613ef983826138fc565b925050506101208083015186830382880152613f1583826138fc565b925050506101408083015186830382880152613f3183826138fc565b610160948501519790940196909652505094870194925090860190600101613e10565b60006101a08f83528e60208401528d60408401528c60608401528b6080840152613f8160a084018c613a5e565b89151560c08401528060e0840152613f9b8184018a6138fc565b9050828103610100840152613fb081896138fc565b9050828103610120840152613fc581886138fc565b9050828103610140840152613fda81876138fc565b9050828103610160840152613fef81866138fc565b915050826101808301529e9d5050505050505050505050505050565b8d81526101a0602082015260006140266101a083018f6138fc565b8281036040840152614038818f6138fc565b9050828103606084015261404c818e6138fc565b90508281036080840152614060818d6138fc565b905082810360a0840152614074818c6138fc565b60c084019a909a52505060e0810196909652610100860194909452610120850192909252610140840152610160830152610180909101529695505050505050565b634e487b7160e01b600052604160045260246000fd5b6040516101a081016001600160401b03811182821017156140ee576140ee6140b5565b60405290565b60405161018081016001600160401b03811182821017156140ee576140ee6140b5565b604051601f8201601f191681016001600160401b038111828210171561413f5761413f6140b5565b604052919050565b600082601f83011261415857600080fd5b81356001600160401b03811115614171576141716140b5565b614184601f8201601f1916602001614117565b81815284602083860101111561419957600080fd5b816020850160208301376000918101602001919091529392505050565b6000602082840312156141c857600080fd5b81356001600160401b03808211156141df57600080fd5b908301906101a082860312156141f457600080fd5b6141fc6140cb565b8235815260208301358281111561421257600080fd5b61421e87828601614147565b60208301525060408301358281111561423657600080fd5b61424287828601614147565b60408301525060608301358281111561425a57600080fd5b61426687828601614147565b60608301525060808301358281111561427e57600080fd5b61428a87828601614147565b60808301525060a0830135828111156142a257600080fd5b6142ae87828601614147565b60a08301525060c0838101359082015260e0808401359082015261010080840135908201526101208084013590820152610140808401359082015261016080840135908201526101809283013592810192909252509392505050565b60006020828403121561431c57600080fd5b81356001600160401b0381111561433257600080fd5b82016101808185031215613cc157600080fd5b60008060006060848603121561435a57600080fd5b505081359360208301359350604090920135919050565b6000806040838503121561438457600080fd5b82356001600160401b038082111561439b57600080fd5b6143a786838701614147565b935060208501359150808211156143bd57600080fd5b506143ca85828601614147565b9150509250929050565b8035600981106143e357600080fd5b919050565b803580151581146143e357600080fd5b60006020828403121561440a57600080fd5b81356001600160401b038082111561442157600080fd5b908301906101a0828603121561443657600080fd5b61443e6140cb565b823581526020830135602082015260408301356040820152606083013560608201526080830135608082015261447660a084016143d4565b60a082015261448760c084016143e8565b60c082015260e08301358281111561449e57600080fd5b6144aa87828601614147565b60e08301525061010080840135838111156144c457600080fd5b6144d088828701614147565b82840152505061012080840135838111156144ea57600080fd5b6144f688828701614147565b828401525050610140808401358381111561451057600080fd5b61451c88828701614147565b828401525050610160808401358381111561453657600080fd5b61454288828701614147565b91830191909152506101809283013592810192909252509392505050565b60006020828403121561457257600080fd5b613cc1826143d4565b634e487b7160e01b600052601160045260246000fd5b8082018082111561317b5761317b61457b565b600181811c908216806145b857607f821691505b6020821081036145d857634e487b7160e01b600052602260045260246000fd5b50919050565b634e487b7160e01b600052603260045260246000fd5b6000600182016146065761460661457b565b5060010190565b601f82111561465757600081815260208120601f850160051c810160208610156146345750805b601f850160051c820191505b8181101561465357828155600101614640565b5050505b505050565b600019600383901b1c191660019190911b1790565b6001600160401b03831115614688576146886140b5565b61469c8361469683546145a4565b8361460d565b6000601f8411600181146146ca57600085156146b85750838201355b6146c2868261465c565b845550612cd0565b600083815260209020601f19861690835b828110156146fb57868501358255602094850194600190920191016146db565b50868210156147185760001960f88860031b161c19848701351681555b505060018560011b0183555050505050565b818103614735575050565b61473f82546145a4565b6001600160401b03811115614756576147566140b5565b61476a8161476484546145a4565b8461460d565b6000601f82116001811461479857600083156147865750848201545b614790848261465c565b855550612cd0565b600085815260209020601f19841690600086815260209020845b838110156147d257828601548255600195860195909101906020016147b2565b50858310156147f05781850154600019600388901b60f8161c191681555b5050505050600190811b01905550565b6000815461480d816145a4565b80855260206001838116801561482a576001811461484457614872565b60ff1985168884015283151560051b880183019550614872565b866000528260002060005b8581101561486a5781548a820186015290830190840161484f565b890184019650505b505050505092915050565b60006101a0825484526001830154602085015260028301546040850152600383015460608501526004830154608085015260058301546148c360a0860160ff8316613a5e565b6148d760c0860160ff8360081c1615159052565b508060e08501526148ed81850160068501614800565b90508381036101008501526149058160078501614800565b905083810361012085015261491d8160088501614800565b90508381036101408501526149358160098501614800565b905083810361016085015261494d81600a8501614800565b9050600b8301546101808501528091505092915050565b608081526000614977608083018761487d565b828103602084015261498981876138fc565b9050828103604084015261499d8186614800565b91505082606083015295945050505050565b6000815480845260208085019450836000528060002060005b83811015613ca3578154875295820195600191820191016149c8565b600061018082548452806020850152614a02818501600185016149af565b90508381036040850152614a198160028501614800565b90508381036060850152614a308160038501614800565b90508381036080850152614a478160048501614800565b905083810360a0850152614a5e8160058501614800565b905083810360c0850152614a758160068501614800565b905083810360e0850152614a8c8160078501614800565b9050838103610100850152614aa48160088501614800565b9050838103610120850152614abc8160098501614800565b9050838103610140850152614ad481600a8501614800565b9050600b8301546101608501528091505092915050565b604081526000614afe60408301856149e4565b90508260208301529392505050565b60008154614b1a816145a4565b60018281168015614b325760018114614b4757614b76565b60ff1984168752821515830287019450614b76565b8560005260208060002060005b85811015614b6d5781548a820152908401908201614b54565b50505082870194505b5050505092915050565b6602a393ab1b59d160cd1b81526000613cc16007830184614b0d565b81516001600160401b03811115614bb557614bb56140b5565b614bc38161476484546145a4565b602080601f831160018114614bf25760008415614be05750858301515b614bea858261465c565b865550614653565b600085815260208120601f198616915b82811015614c2157888601518255948401946001909101908401614c02565b50858210156147f057939096015160001960f8600387901b161c19169092555050600190811b01905550565b82848237600083820161040560f31b8152614c6b6002820185614b0d565b602960f81b81526001019695505050505050565b608081526000614c92608083018861487d565b8281036020840152614ca481886138fc565b90508281036040840152848152848660208301376000602086830101526020601f19601f8701168201019150508260608301529695505050505050565b604081528254604082015260006101a0806060840152614d086101e0840160018701614800565b603f1980858303016080860152614d228260028901614800565b9150808583030160a0860152614d3b8260038901614800565b9150808583030160c0860152614d548260048901614800565b9150808583030160e086015250614d6e8160058801614800565b6006870154610100860152600787015461012086015260088701546101408601526009870154610160860152600a870154610180860152600b8701549285019290925250600c909401546101c0830152506020015290565b600082601f830112614dd757600080fd5b813560206001600160401b03821115614df257614df26140b5565b8160051b614e01828201614117565b9283528481018201928281019087851115614e1b57600080fd5b83870192505b84831015614e3a57823582529183019190830190614e21565b979650505050505050565b60006101808236031215614e5857600080fd5b614e606140f4565b8235815260208301356001600160401b0380821115614e7e57600080fd5b614e8a36838701614dc6565b60208401526040850135915080821115614ea357600080fd5b614eaf36838701614147565b60408401526060850135915080821115614ec857600080fd5b614ed436838701614147565b60608401526080850135915080821115614eed57600080fd5b614ef936838701614147565b608084015260a0850135915080821115614f1257600080fd5b614f1e36838701614147565b60a084015260c0850135915080821115614f3757600080fd5b614f4336838701614147565b60c084015260e0850135915080821115614f5c57600080fd5b614f6836838701614147565b60e084015261010091508185013581811115614f8357600080fd5b614f8f36828801614147565b838501525061012091508185013581811115614faa57600080fd5b614fb636828801614147565b838501525061014091508185013581811115614fd157600080fd5b614fdd36828801614147565b92840192909252505061016092830135928101929092525090565b60808152600061500b608083018761487d565b6020830195909552506040810192909252606090910152919050565b600082516150398184602087016138d8565b9190910192915050565b600083516150558184602088016138d8565b61040560f31b90830190815283516150748160028401602088016138d8565b602960f81b60029290910191820152600301949350505050565b604081526000614afe604083018561487d56feab365b430d1cb972c4b60d3b01894829fab4d8994081ac78936ffcea5ba9ce95a2646970667358221220ff705e9b68e3c6b05b91211c30786bb662c6bbf8b509d7bedcde95ea1b5a2f6c64736f6c63430008120033",
  "linkReferences": {},
  "deployedLinkReferences": {}
}